:1000000000400020190F0000B10F0000B90F0000E0
:1000100000000000000000000000000000000000E0
:10002000000000000000000000000000B10F000010
:100030000000000000000000B10F0000B10F000040
:10004000B10F0000B10F0000B10F0000B10F0000B0
:10005000B10F0000B10F0000B10F0000B10F0000A0
:10006000B10F0000B10F0000B10F0000B10F000090
:10007000B10F0000B10F0000B10F0000B10F000080
:10008000B10F0000B10F0000B10F0000B10F000070
:10009000B10F0000B10F0000B10F0000B10F000060
:1000A000B10F0000B10F0000B10F0000B10F000050
:1000B0000000000000000000000000000000000040
:1000C00080B500AF002000F063FD00F08BF8364AE9
:1000D00036480023012100F013F9354A3548002342
:1000E000042100F00DF90121032000F0B5FE0320EA
:1000F00000F0E0FE032000F0F3FE00F073F80121B1
:10010000132000F0A9FE132000F0D4FE132000F00D
:10011000E7FE294A29480923002100F0F1F8284A7E
:1001200026480923012100F0EBF8264B264A190046
:10013000100000F0D5F900F0DFFB234B180000F0B1
:10014000BFFB224A224B2348190000F03BFD214B04
:10015000180000F001FE00F079FE1B4B0121180091
:1001600000F0F4FB184B0021180000F00DFC030018
:100170009AB2194B1A80184B1B88184A93420CD913
:10018000174B144A1900100000F0F5FD094B01222D
:100190000421180000F09CF8DFE7064B0022042140
:1001A000180000F095F8D8E76C1000000002044039
:1001B0005810000000030440301000000007044005
:1001C00044100000B810000000003A400400002075
:1001D000801000000000274000000020CD04000037
:1001E0000810000080B500AF0021012000F04EFC97
:1001F00019220021012000F065FC0021012000F0FF
:1002000089FC00220121032000F0A2FC0121012031
:1002100000F03CFC17220121012000F053FC0121D9
:10022000012000F077FC01220121062000F090FC63
:100230000221012000F02AFC244B1A000221012097
:1002400000F040FC0221012000F064FC02220121A8
:10025000072000F07DFC0321012000F017FC1B4B60
:100260001A000321012000F02DFC0321012000F0E1
:1002700051FC03220121082000F06AFC0421012026
:1002800000F004FCEF220421012000F01BFC0421FB
:10029000012000F03FFC04220121092000F058FC5D
:1002A0000521012000F0F2FB17220521012000F0BA
:1002B00009FC0521012000F02DFC0522012112205E
:1002C00000F046FCC046BD4680BDC046BF5D000094
:1002D00080B584B000AFF860B9607A607B68002BAD
:1002E00005D10122BB689A40FB685A6404E00122F0
:1002F000BB689A40FB681A64C046BD4604B080BD26
:1003000080B584B000AFF860B9607A601A00FB1C59
:100310001A707B681A68B968FB681800FFF7D8FF85
:100320007B685A68B968FB68180000F051F8FB1C3C
:100330001A78B968FB68180000F01AF87B689A68A8
:10034000B968FB68180000F077F87B68DA68FB682A
:100350001100180000F090F87B681A69FB68110022
:10036000180000F0A3F8C046BD4604B080BD0000F0
:1003700080B588B000AFF860B960FB1D1A70FB68EB
:10038000114A944663441B0AFB61FB690F4A944679
:1003900063441B02BB61BB691B68BA6892000F21F2
:1003A00091400A00D24313407B61FB1D1B780F2252
:1003B0001A40BB689B009A407B691A43BB691A606C
:1003C000C046BD4608B080BD0000FCBF0002400032
:1003D00080B586B000AFF860B9607A60BA68130083
:1003E0005B009B187B61FB689B6807217A699140E1
:1003F0000A00D24313403B617B6807221A407B69A5
:100400009A403B691A43FB689A60FB689B6901212B
:10041000BA6891400A00D24313403B617B68DB0815
:1004200001221A40BB689A403B691A43FB689A61F3
:10043000C046BD4606B080BD80B586B000AFF8604E
:10044000B9607A60BB685B007B61FB68DB68032195
:100450007A6991400A00D24313403B617B680322D2
:100460001A407B699A403B691A43FB68DA60C046D0
:10047000BD4606B080BD000080B584B000AF786096
:1004800039607B689B68084A1340FB603B681A062A
:1004900080235B041A40FB681A437B689A60C0465D
:1004A000BD4604B080BDC046FFFFFFFE80B584B0EE
:1004B00000AF786039607B689B68084A1340FB6036
:1004C0003B685A0680239B041A40FB681A437B68EA
:1004D0009A60C046BD4604B080BDC046FFFFFFFD28
:1004E00080B588B000AF786039600023BB6100231D
:1004F0007B617B681A68C0239B051A407B681A6081
:100500007B681A683B681B781B01702119403B68A7
:100510005B78002B01D0802300E0002319433B6867
:100520009B785802E0231B01034019433B68DB78AA
:10053000580380239B01034019433B681B79002B20
:1005400002D080235B0300E0002319433B685B7902
:100550001806C0239B04034019433B689B79002B7A
:1005600002D080231B0500E0002319433B68DB79A0
:10057000002B02D08023DB0500E000230B431A434D
:100580007B681A607B685A6880231B031A407B686B
:100590005A607B685A683B681B7A1900012319402E
:1005A0003B685B7A002B01D0022300E00023194353
:1005B0003B689B7A002B01D0042300E00023194301
:1005C0003B68DB7A002B01D0082300E000231943AD
:1005D0003B681B7B1B017020034019433B685B7B1E
:1005E000002B01D0802300E0002319433B689B7B54
:1005F000580480239B02034019433B68DB7B002B9C
:1006000002D080231B0600E000230B431A437B68C3
:100610005A603B681B699B059A0D3B685B691B042C
:100620009A490B401A437B681A613B689B699B059A
:100630009A0D3B68DB691B0494490B401A437B68A5
:100640005A613B681B6A1B041A0C3B685B6A1B04FB
:100650001A437B689A613B6828229B5C9A077B68F7
:10066000DA613B68DB6A1B041A0C7B681A621F2381
:10067000FB1800221A70C5E01F217B181A783B680E
:100680000C329200D3583B613B69002B00D1B3E0A0
:100690007B181B78072B2CD83B691B6877221A40E4
:1006A0003B691B79002B02D080235B0000E0002314
:1006B0001A433B695B79590280239B000B401A4324
:1006C0003B699B79002B02D08023DB0000E00023F4
:1006D000134319003B69DB791A03C0239B011340C4
:1006E0001F22BA18127819437B6820329200D15029
:1006F00028E03B691B6807221A403B691B79002BE5
:1007000002D080235B0000E000231A433B695B7941
:10071000590280239B000B401A433B699B79002BB5
:1007200002D08023DB0000E000231A433B69DB7921
:100730001903C0239B010B401A4311007A68A023C0
:100740009B00D1503B691B7901225340DBB2002B47
:100750000FD03B689B78072B0BD13B689B7A002B13
:1007600007D01F23FB181A78494B52004949D15230
:1007700007E01F23FB181A78454B01325200002175
:10078000D1521F22BB181B78102B19D83B691B7A3A
:10079000002B07D0BB181B7801229A4013007A69FE
:1007A00013437B613B695B7A002B25D01F23FB1829
:1007B0001B7801229A401300BA691343BB611BE006
:1007C0003B691B7A002B01D0402200E000223B69EC
:1007D0005B7A002B01D0202300E000231343FB6051
:1007E000FA687B681100180000F03FF9FA687B682E
:1007F0001100180000F028F91F217B181A787B18C7
:1008000001321A701F23FB181B78102B00D833E716
:10081000BA697B681100180000F040F8BA697B687B
:100820001100180000F0DDF87A697B6811001800EB
:1008300000F0F9F87A697B681100180000F0E2F81E
:10084000154AD0239B000221D150134AC0239B009C
:100850000221D150104B1A680F4B802109060A4320
:100860001A600D49C0239B0080225202CA500A4AD6
:10087000D0239B00D3580849802252021A43D02328
:100880009B00CA50C046BD4608B080BD0000FF03B3
:100890003400002000F8FFFF00003A4080B582B02D
:1008A00000AF786039603B68FF22134019007A6816
:1008B00088239B00D150C046BD4602B080BD0000D9
:1008C00080B584B000AF78607B681B688022120618
:1008D0001A437B681A600023FB6002E0FB68013367
:1008E000FB60FB68034A9342F8DDC046C046BD4644
:1008F00004B080BD4FC3000080B500AF124AD023C2
:100900009B000221D150104AC0239B000221D150EC
:100910000D4B1A680C4B802109060A431A600A49DC
:10092000C0239B0080225202CA50074AD0239B005A
:10093000D3580549802252021A43D0239B00CA5043
:10094000C046BD4680BDC04600003A4080B582B07A
:1009500000AF78600A00FB1C1A70FB1C1B78002B90
:1009600002D0012B08D00BE07B685B68802252022A
:100970001A437B685A6003E07B6801225A62C046D2
:10098000C046BD4602B080BD80B584B000AF78607F
:1009900039600023BB600023FB6006E07A68842393
:1009A0009B00D35801221340FB60FB68002BF5D05D
:1009B0007A6884239B00D35801221A4311007A6875
:1009C00084239B00D1507B683A6860329200D358F0
:1009D0001B041B0CBB60BB681BB21800BD4604B0F7
:1009E00080BD80B582B000AF786039603B68FF227F
:1009F000134019007A688A239B00D150C046BD4637
:100A000002B080BD80B582B000AF786039603B68CD
:100A1000FF22134019007A688E239B00D150C046F4
:100A2000BD4602B080BD80B582B000AF786039604D
:100A30003B68FF22134019007A688C239B00D15039
:100A4000C046BD4602B080BD80B582B000AF7860C0
:100A500039603B68F722134019007A6886239B00AF
:100A6000D150C046BD4602B080BD80B582B000AF57
:100A7000786039603B68F722134019007A68842354
:100A80009B00D150C046BD4602B080BD80B582B04B
:100A900000AF02003960FB1D1A70FB1D1B789B0123
:100AA000FF221A403B683F210B401A43044B802130
:100AB000C9050A431A60C046BD4602B080BDC046A3
:100AC0000000014080B584B000AFB9607A600F21AA
:100AD0007B18021C1A707B187A1812781A700A4A4E
:100AE000BB68C0339B009B58084A1A407B681B02B6
:100AF00007490B4004491A43BB68C0339B005A5056
:100B0000C046BD4604B080BD00000140FF0000FFAC
:100B100000FFFF0080B582B000AF02003960FB1D0E
:100B20001A70FB1D1B789B01FF221A403B683F2176
:100B30000B401A43044B05490A431A60024B1B68D9
:100B4000C046BD4602B080BD0000014000FF0080ED
:100B500080B582B000AF3A60FB1D021C1A70BB1D4D
:100B60000A1C1A70BB1D1B789B01FF221340190041
:100B70003B683F221A400548FB1D1B780A4340335F
:100B80009B001A50C046BD4602B080BD0000014027
:100B900080B582B000AF0200FB1D1A70084B9B6A43
:100BA0000C2293431900FB1D1B789B000C221A405A
:100BB000034B0A439A62C046BD4602B080BDC046A0
:100BC0000000034080B586B000AFF860B9607A607D
:100BD000BB685B68013B7B617B690F22134080220D
:100BE00092041A43FB681A60FB681A68BB689B682A
:100BF000082B02D880231B0100E000231A43FB6866
:100C00001A60BB681B781A06C0239B041A40FB6855
:100C10001A64BB685B7B013B07221A40BB689B7B65
:100C20001B0130210B401A43FB689A64BB681B7B95
:100C3000002B02D080235A0000E00022BB689B6892
:100C4000013B0F210B401A431100FA68C0239B009F
:100C5000D150BB685B7B013B07221A40BB689B7B82
:100C60001B0130210B401A43FB685A64BB681B7B95
:100C7000002B02D080235A0000E00022BB689B6852
:100C8000013B0F210B401A431100FA6880239B009F
:100C9000D150BB68DB69FF2213401900FA68C123F9
:100CA0009B00D150BB68DB7B002B02D080239A04D1
:100CB00000E00022BB681B7C012B02D180235B0477
:100CC00000E000231A43BB681B7E012B02D1802366
:100CD0005B0200E000231A43BB685B69FF210B4005
:100CE0001A43FB681A65BB685B6AFF221340190050
:100CF000FA6881239B00D150BB681B6A124A1A40D4
:100D0000FB6812495A50BB689B6A114A1A40FB683B
:100D100010495A507B68002B11D07B6800225A6022
:100D20007B6800221A607B6800229A607B68002240
:100D3000DA607B6800221A627B680022DA62C046B1
:100D4000BD4606B080BDC0466D0B0000C80F000058
:100D500073070000880F000080B582B000AF786094
:100D60007B681B68802212061A437B681A60C046A3
:100D7000BD4602B080BD80B582B000AF78603960FA
:100D80003A687B681100180000F004F8C046BD46C0
:100D900002B080BD80B584B000AF786039600023B8
:100DA000FB607B68180000F024F80300BB6015E0CE
:100DB000C0467B68180000F02DF80200BB68934223
:100DC000F7D03A68FB68D3181B781A007B681100CB
:100DD000180000F02DF8FB680133FB603A68FB68EF
:100DE000D3181B78002BE3D1C046C046BD4604B0E3
:100DF00080BD80B582B000AF78607B681A688023C0
:100E00001B01134001D0102300E008231800BD4649
:100E100002B080BD80B582B000AF78607A6882236E
:100E20009B00D358DB05DB0D1800BD4602B080BD2A
:100E300080B582B000AF786039607A6890239B00FB
:100E40003968D150C046BD4602B080BD80B500AF04
:100E500062B6C046BD4680BD80B582B000AF786046
:100E600039607B68002B1FDB114A7B689B08C0330D
:100E70009B009B587A6803210A40D200FF219140D1
:100E80000A00D2431A4011003B689B01FF221A401E
:100E90007B6803200340DB009A4005487B689B0881
:100EA0000A43C0339B001A50C046BD4602B080BD05
:100EB00000E100E080B582B000AF78607B68002B75
:100EC00008DB7B681F221340044901229A40C0239B
:100ED0005B00CA50C046BD4602B080BD00E100E0E4
:100EE00080B582B000AF78607B68002B07DB7B6841
:100EF0001F221A40044B012191400A001A60C0468B
:100F0000BD4602B080BDC04600E100E080B500AF44
:100F1000C046BD4680BD000080B586B000AF1D4B09
:100F20001D4A1A601D4A1E4BD31A9B107B601C4B36
:100F30007B611C4B3B610023FB600AE03A69131D97
:100F40003B617B69191D796112681A60FB68013386
:100F5000FB60FA687B689A42F0D3134A134BD31AAA
:100F60009B107B60114B7B610023BB6007E07B69BA
:100F70001A1D7A6100221A60BB680133BB60BA682F
:100F80007B689A42F3D300F01BF8FFF799F8C0464C
:100F9000FDE7C046380003406588EDAC0000002046
:100FA0000000002034110000580000200000002044
:100FB00080B500AFC046FDE780B500AFC046FDE795
:100FC00070B500260C4C0D4D641BA410A64209D12F
:100FD0000026FFF79BFF0A4C0A4D641BA410A64293
:100FE00005D170BDB300EB5898470136EEE7B3006A
:100FF000EB5898470136F2E70000000000000000BF
:1010000000000000000000003E3E2056414C5545C7
:101010002047524541544552205448414E20312EDC
:101020003556204F42534552564544200D0A0A007A
:1010300001000000010000000000000000000000AE
:1010400000000000010000000E0000000000000091
:101050000000000000000000010000000600000089
:10106000000000000000000000000000010000007F
:101070000900000000000000000000000000000067
:10108000000000000800000008000000000200004E
:101090000000000000000000000000000700000049
:1010A0000000000007000000000000000100000038
:1010B0000000000000000000070000010001000027
:1010C00001000001070100000D0000000200000007
:1010D000020000000200000000000000000000000C
:1010E0000000000001000000AC1000000000000043
:1010F00000000000000000000000000000000000F0
:1011000000000000000000000000000000000000DF
:1011100000000000000000000000000000000000CF
:1011200000000000000000000000000000000000BF
:041130008813000020
:0400000300000F19D1
:00000001FF
