:1000000000400020550A0000ED0A0000F50A00003B
:1000100000000000000000000000000000000000E0
:10002000000000000000000000000000ED0A0000D9
:100030000000000000000000ED0A0000ED0A0000D2
:10004000ED0A0000ED0A0000ED0A0000ED0A0000D4
:10005000ED0A0000ED0A0000ED0A0000ED0A0000C4
:10006000ED0A0000ED0A0000ED0A0000ED0A0000B4
:10007000ED0A0000ED0A0000ED0A0000ED0A0000A4
:10008000ED0A0000ED0A0000ED0A0000ED0A000094
:10009000ED0A0000ED0A0000ED0A0000ED0A000084
:1000A000ED0A0000ED0A0000ED0A0000ED0A000074
:1000B0000000000000000000000000000000000040
:1000C00080B500AF002000F045FC00F073F82E4A28
:1000D0002E480023012100F085F92D4A2D480023E8
:1000E000042100F07FF90121032000F053FC0320DC
:1000F00000F07EFC032000F091FC00F05BF8012191
:10010000132000F047FC132000F072FC132000F0D5
:1001100085FC214B21481A00022100F053FA1F4BA5
:100120000221180000F01DFB1C4B012202211800C7
:1001300000F029FB1A4A194B0221180000F036FB87
:10014000164B0421180000F044FB164B13481A000C
:10015000002100F037FA114B0021180000F001FBDC
:10016000114A12480923002100F03CF9104A0F48B7
:100170000923012100F036F900F006FC00F092F8A6
:1001800000F0D2F8C046FDE73C0E0000000204403B
:10019000280E000000030440500E00000000204024
:1001A000E70300009C0E0000000E00000007044062
:1001B000140E000080B500AF0021012000F048FBC4
:1001C00019220021012000F05FFB0021012000F036
:1001D00083FB00220121032000F09CFB0121012070
:1001E00000F036FB17220121012000F04DFB012118
:1001F000012000F071FB01220121062000F08AFBA2
:100200000221012000F024FB244B1A0002210120CE
:1002100000F03AFB0221012000F05EFB02220121E6
:10022000072000F077FB0321012000F011FB1C4B9D
:100230001A000321012000F027FB0321012000F018
:100240004BFB03220121082000F064FB0421012064
:1002500000F0FEFAEF220421012000F015FB04213A
:10026000012000F039FB04220121092000F052FB9B
:100270000521012000F0ECFA17220521012000F0F1
:1002800003FB0521012000F027FB0522012112209C
:1002900000F040FBC046BD4680BDC046BF5D0000CB
:1002A000FF1B4E0E80B582B000AF1B4B0022002119
:1002B000180000F09BFA184B0121180000F089FA91
:1002C000FB1D00221A7011E0FB1D1A78134B9200DF
:1002D000D258FB1D187813009B009918104B820010
:1002E000D150FB1D1A78FB1D01321A70FB1D1B78C3
:1002F000092BE9D9084B0121180000F08AFA064BB6
:100300000021180000F092FA0200064B1A60C04665
:10031000BD4602B080BDC046000020400000002065
:1003200050000020A000002090B583B000AF1C4B0F
:1003300000220021180000F059FA194B0121180081
:1003400000F047FAFB1D00221A7014E0FB1D1A781A
:10035000144B9200D258FB1D1C781349101C00F05E
:10036000CDFB031C191C114BA200D150FB1D1A78A8
:10037000FB1D01321A70FB1D1B78092BE6D9084BB7
:100380000121180000F045FA054B0021180000F08B
:100390004DFA0200064B1A60C046BD4603B090BD40
:1003A00000002040280000200000A040780000202D
:1003B000A400002080B584B000AFF860B9607A6016
:1003C0007B68002B05D10122BB689A40FB685A6408
:1003D00004E00122BB689A40FB681A64C046BD462F
:1003E00004B080BD80B584B000AFF860B9607A60B9
:1003F0001A00FB1C1A707B681A68B968FB68180041
:10040000FFF7D8FF7B685A68B968FB68180000F0EE
:1004100051F8FB1C1A78B968FB68180000F01AF84C
:100420007B689A68B968FB68180000F077F87B6809
:10043000DA68FB681100180000F090F87B681A6910
:10044000FB681100180000F0A3F8C046BD4604B0D8
:1004500080BD000080B588B000AFF860B960FB1DBA
:100460001A70FB68114A944663441B0AFB61FB69DE
:100470000F4A944663441B02BB61BB691B68BA68A0
:1004800092000F2191400A00D24313407B61FB1D73
:100490001B780F221A40BB689B009A407B691A4365
:1004A000BB691A60C046BD4608B080BD0000FCBFF5
:1004B0000002400080B586B000AFF860B9607A6095
:1004C000BA6813005B009B187B61FB689B6807217F
:1004D0007A6991400A00D24313403B617B6807224E
:1004E0001A407B699A403B691A43FB689A60FB6833
:1004F0009B690121BA6891400A00D24313403B61D5
:100500007B68DB0801221A40BB689A403B691A43AA
:10051000FB689A61C046BD4606B080BD80B586B016
:1005200000AFF860B9607A60BB685B007B61FB6814
:10053000DB6803217A6991400A00D24313403B6192
:100540007B6803221A407B699A403B691A43FB6827
:10055000DA60C046BD4606B080BD000080B584B0FC
:1005600000AF786039607B689B68084A1340FB6085
:100570003B681A0680235B041A40FB681A437B68B9
:100580009A60C046BD4604B080BDC046FFFFFFFE76
:1005900080B584B000AF786039607B689B68084A9A
:1005A0001340FB603B685A0680239B041A40FB689B
:1005B0001A437B689A60C046BD4604B080BDC04601
:1005C000FFFFFFFD80B584B000AFF860B9607A60CE
:1005D0007B685B681B021B041A0C7B689B68990490
:1005E0008023DB020B401A437B68DB681904C023BD
:1005F0009B020B401A437B681B691906E023DB044E
:100600000B401A437B681B7F002B01D0012300E0C5
:10061000002313431900FB68BA6804329201D150D9
:100620007B68DB68002B09D1F968BA6884235B001A
:1006300092018A18D31800221A6017E07B68DB68E1
:10064000012B0AD17B681A68F868B96884235B00BB
:1006500089014118CB181A6008E0F968BA68842348
:100660005B0092018A18D31801221A607B681B690B
:10067000002B13D17B685A69F868B96886235B0040
:1006800089014118CB181A607B689A69F868B968C3
:1006900088235B0089014118CB181A607B681A68AF
:1006A000F868B9688A235B0089014118CB181A6081
:1006B0007B689B6A0F221A407B681B6B1902F02330
:1006C0001B010B401A437B689B6B1904F0231B032F
:1006D0000B401A437B681B6C1B031B041B0C1A4347
:1006E0007B689B6C1B01FF210B401A43F868B968BB
:1006F00090235B0089014118CB181A607B685B6A04
:1007000003221A407B68DB6A1B0130210B401A432D
:100710007B685B6B1902C0239B000B401A437B680C
:10072000DB6B9B01FF210B401A437B685B6C9B00DA
:100730000C210B401A43F868B96892235B008901C9
:100740004118CB181A607B681A6AF868B9689C234C
:100750005B0089014118CB181A60C046BD4604B041
:1007600080BD80B582B000AF786039607B681A6860
:1007700001213B6899400B001A437B681A60C04610
:10078000BD4602B080BD80B584B000AFF860B960EE
:100790007A60F968BA689A235B0092018A18D318C4
:1007A0007A681A60C046BD4604B080BD80B584B08A
:1007B00000AFF860B9607A60F968BA688A235B00B4
:1007C00092018A18D3187A681A60C046BD4604B0F0
:1007D00080BD80B582B000AF786039603B681A0692
:1007E0007B689A60C046BD4602B080BD80B584B0CB
:1007F00000AFF860B9607A60F968BA6884235B007A
:1008000092018A18D3187A681A60C046BD4604B0AF
:1008100080BD80B582B000AF786039603B681A0453
:100820007B689A60C046BD4602B080BD80B582B08C
:1008300000AF7860396079683A6884235B00920180
:100840008A18D3181B681800BD4602B080BD00008E
:1008500080B582B000AF02003960FB1D1A70FB1D2D
:100860001B789B01FF221A403B683F210B401A4333
:10087000044B8021C9050A431A60C046BD4602B038
:1008800080BDC0460000014080B584B000AFB960B3
:100890007A600F217B18021C1A707B187A18127864
:1008A0001A700A4ABB68C0339B009B58084A1A401A
:1008B0007B681B0207490B4004491A43BB68C033DD
:1008C0009B005A50C046BD4604B080BD00000140A8
:1008D000FF0000FF00FFFF0080B582B000AF020004
:1008E0003960FB1D1A70FB1D1B789B01FF221A400B
:1008F0003B683F210B401A43044B05490A431A60E9
:10090000024B1B68C046BD4602B080BD00000140DE
:1009100000FF008080B582B000AF3A60FB1D021C72
:100920001A70BB1D0A1C1A70BB1D1B789B01FF228D
:10093000134019003B683F221A400548FB1D1B78F5
:100940000A4340339B001A50C046BD4602B080BDEA
:100950000000014080B582B000AF0200FB1D1A709C
:10096000084B9B6A0C2293431900FB1D1B789B00CC
:100970000C221A40034B0A439A62C046BD4602B09D
:1009800080BDC0460000034080B500AF62B6C046DF
:10099000BD4680BD80B582B000AF786039607B68AD
:1009A000002B1FDB114A7B689B08C0339B009B58C0
:1009B0007A6803210A40D200FF2191400A00D24305
:1009C0001A4011003B689B01FF221A407B680320FC
:1009D0000340DB009A4005487B689B080A43C0330C
:1009E0009B001A50C046BD4602B080BD00E100E049
:1009F00080B582B000AF78607B68002B08DB7B6835
:100A00001F221340044901229A40C0235B00CA50B0
:100A1000C046BD4602B080BD00E100E080B582B0B6
:100A200000AF78607B68002B07DB7B681F221A40D1
:100A3000044B012191400A001A60C046BD4602B035
:100A400080BDC04600E100E080B500AFC046BD46B5
:100A500080BD000080B586B000AF1D4B1D4A1A60F6
:100A60001D4A1E4BD31A9B107B601C4B7B611C4B99
:100A70003B610023FB600AE03A69131D3B617B691F
:100A8000191D796112681A60FB680133FB60FA680E
:100A90007B689A42F0D3134A134BD31A9B107B60A6
:100AA000114B7B610023BB6007E07B691A1D7A61F3
:100AB00000221A60BB680133BB60BA687B689A4247
:100AC000F3D300F079F9FFF7FBFAC046FDE7C04623
:100AD000380003406588EDAC500000200000002085
:100AE000E80E0000A80000205000002080B500AFF4
:100AF000C046FDE780B500AFC046FDE7F0B54F4604
:100B00004646D6464502C0B546000F1C6D0A360E55
:100B1000C40F002E00D1C3E0FF2E77D08023ED005C
:100B2000DB041D43002399469A467F3E7B025B0A05
:100B300098467B001B0EFF0F002B77D0FF2B00D1B8
:100B400094E042468021D200C90411438846002126
:100B50007F3BF6184B46721C0A2B73DC4B467C40DD
:100B6000022B00DCA7E0484601238340A620C000FA
:100B7000034267D190208000034200D0ECE0B938F6
:100B8000FF38184200D0DAE041460904090C434618
:100B90000F00280C2D041B0C2D0C6F4341435D43AB
:100BA00058436D183B0C5B19994203D980214902C7
:100BB0008C4660443F0419043F0CC9198D016F1E17
:100BC000BD411B0C890E1B180D439B011D431B01CE
:100BD00000D4C6E0012369081D400D4310007F309A
:100BE000002800DC94E06B0704D00F232B40042B7B
:100BF00000D004352B0103D5803210005E4B1D4020
:100C0000FE2855DCAB015B0AC0B226E0002D00D007
:100C100078E008239946063B9A467B025B0A984691
:100C20007B00FF261B0EFF0F002B87D14346002BB6
:100C300056D14A4601331A4391464B460121721C54
:100C40000A2B8BDD5346022B32D0032B00D17CE0E4
:100C50005346012BC2D100200023C0051843E407EE
:100C60002043E0BCBA46B146A846F0BD3300424638
:100C7000FF33002A3FD0032249461143721C8946A4
:100C8000FF320A2973DD0F295DD18023DB031D426A
:100C90005BD042461A4258D13C00FF201343DCE7A8
:100CA000002D11D104239946033B00269A463DE7C7
:100CB000FF200023D1E7013B012B00D964E7022983
:100CC000F6D045468A46C3E7280000F057F8762656
:100CD000431F9D400023764299469A46361A25E7DF
:100CE000404600F04BF84246431F9A40361A904661
:100CF0000021763E2EE749460232114389461E0006
:100D0000022127E70C239946093BFF269A460DE767
:100D100001231B1A1B2B9EDC9E3229009540D940D3
:100D20006A1E95410D436B0704D00F232B40042B03
:100D300000D004356B0116D5012000238DE73C005F
:100D400045468A467EE73C0045468023DB032B432D
:100D50005B02FF205B0A80E780230024FF20DB0387
:100D60007BE732003AE7AB0100205B0A75E71E0023
:100D700003217C40F7E6C046FFFFFFF71C2101235B
:100D80001B04984201D3000C10391B0A984201D36E
:100D9000000A08391B09984201D30009043902A24C
:100DA000105C40187047C0460403020201010101B3
:100DB000000000000000000070B500260C4C0D4D36
:100DC000641BA410A64209D10026FFF73DFE0A4C81
:100DD0000A4D641BA410A64205D170BDB300EB58A8
:100DE00098470136EEE7B300EB5898470136F2E733
:100DF00000000000000000000000000000000000F3
:100E000001000000010000000000000000000000E0
:100E100000000000010000000E00000000000000C3
:100E200000000000000000000100000006000000BB
:100E300000000000000000000000000001000000B1
:100E40000900000000000000000000000000000099
:100E50000080000000000000000000000000000012
:100E60000200000000400000004000000000000000
:100E7000010000000300000000000000030000006B
:100E8000000000000300000000000000030000005C
:100E900000000000030000000100000000800000CE
:100EA0000000000000000000000000000200000040
:100EB00000400000004000000000000000000000B2
:100EC000030000000000000003000000000000001C
:100ED000030000000000000003000000000000000C
:080EE000030000000100000006
:100EE80001000000020000000300000004000000F0
:100EF80005000000060000000700000008000000D0
:100F0800090000000A0000000000803F00000040C7
:100F180000004040000080400000A0400000C040A9
:100F28000000E040000000410000104100002041A6
:0400000300000A559A
:00000001FF
